{
  "contractName": "Web3MarketingSuite",
  "abi": [
    {
      "anonymous": false,
      "inputs": [
        {
          "indexed": true,
          "internalType": "string",
          "name": "name",
          "type": "string"
        }
      ],
      "name": "BusinessRegistered",
      "type": "event"
    },
    {
      "anonymous": false,
      "inputs": [
        {
          "indexed": true,
          "internalType": "string",
          "name": "campaignName",
          "type": "string"
        },
        {
          "indexed": false,
          "internalType": "string",
          "name": "businessName",
          "type": "string"
        }
      ],
      "name": "CampaignCreated",
      "type": "event"
    },
    {
      "anonymous": false,
      "inputs": [
        {
          "indexed": true,
          "internalType": "address",
          "name": "walletAddress",
          "type": "address"
        },
        {
          "indexed": false,
          "internalType": "string",
          "name": "name",
          "type": "string"
        }
      ],
      "name": "InfluencerRegistered",
      "type": "event"
    },
    {
      "anonymous": false,
      "inputs": [
        {
          "indexed": true,
          "internalType": "string",
          "name": "influencerName",
          "type": "string"
        },
        {
          "indexed": true,
          "internalType": "address",
          "name": "influencerAddress",
          "type": "address"
        },
        {
          "indexed": false,
          "internalType": "uint256",
          "name": "amount",
          "type": "uint256"
        }
      ],
      "name": "TransactionToInfluencer",
      "type": "event"
    },
    {
      "inputs": [
        {
          "internalType": "string",
          "name": "",
          "type": "string"
        }
      ],
      "name": "businesses",
      "outputs": [
        {
          "internalType": "string",
          "name": "name",
          "type": "string"
        }
      ],
      "stateMutability": "view",
      "type": "function",
      "constant": true
    },
    {
      "inputs": [
        {
          "internalType": "string",
          "name": "",
          "type": "string"
        }
      ],
      "name": "campaignsByName",
      "outputs": [
        {
          "internalType": "string",
          "name": "businessName",
          "type": "string"
        },
        {
          "internalType": "string",
          "name": "campaignName",
          "type": "string"
        }
      ],
      "stateMutability": "view",
      "type": "function",
      "constant": true
    },
    {
      "inputs": [
        {
          "internalType": "address",
          "name": "",
          "type": "address"
        }
      ],
      "name": "influencersByAddress",
      "outputs": [
        {
          "internalType": "string",
          "name": "name",
          "type": "string"
        },
        {
          "internalType": "address",
          "name": "walletAddress",
          "type": "address"
        }
      ],
      "stateMutability": "view",
      "type": "function",
      "constant": true
    },
    {
      "inputs": [
        {
          "internalType": "string",
          "name": "",
          "type": "string"
        }
      ],
      "name": "influencersByName",
      "outputs": [
        {
          "internalType": "address",
          "name": "",
          "type": "address"
        }
      ],
      "stateMutability": "view",
      "type": "function",
      "constant": true
    },
    {
      "inputs": [
        {
          "internalType": "string",
          "name": "_name",
          "type": "string"
        },
        {
          "internalType": "address",
          "name": "_walletAddress",
          "type": "address"
        }
      ],
      "name": "registerInfluencer",
      "outputs": [],
      "stateMutability": "nonpayable",
      "type": "function"
    },
    {
      "inputs": [
        {
          "internalType": "string",
          "name": "_name",
          "type": "string"
        }
      ],
      "name": "registerBusiness",
      "outputs": [],
      "stateMutability": "nonpayable",
      "type": "function"
    },
    {
      "inputs": [
        {
          "internalType": "string",
          "name": "_businessName",
          "type": "string"
        },
        {
          "internalType": "string",
          "name": "_campaignName",
          "type": "string"
        }
      ],
      "name": "createCampaign",
      "outputs": [],
      "stateMutability": "nonpayable",
      "type": "function"
    },
    {
      "inputs": [
        {
          "internalType": "string",
          "name": "_campaignName",
          "type": "string"
        },
        {
          "internalType": "string",
          "name": "_influencerName",
          "type": "string"
        }
      ],
      "name": "addInfluencerToCampaign",
      "outputs": [],
      "stateMutability": "nonpayable",
      "type": "function"
    },
    {
      "inputs": [
        {
          "internalType": "string",
          "name": "_campaignName",
          "type": "string"
        },
        {
          "internalType": "string",
          "name": "_influencerName",
          "type": "string"
        },
        {
          "internalType": "uint256",
          "name": "_amount",
          "type": "uint256"
        }
      ],
      "name": "makeTransactionToInfluencer",
      "outputs": [],
      "stateMutability": "payable",
      "type": "function",
      "payable": true
    }
  ],
  "bytecode": "0x608060405234801561001057600080fd5b50611989806100206000396000f3fe6080604052600436106100865760003560e01c80637cc78a0a116100595780637cc78a0a14610122578063937f68e01461015f578063adb6bddb1461019d578063b45e1c4e146101db578063fce3f6ac1461021857610086565b8063014a5c7a1461008b5780633e90f230146100b4578063462cbd21146100d057806360e7f7d1146100f9575b600080fd5b34801561009757600080fd5b506100b260048036038101906100ad9190611029565b610241565b005b6100ce60048036038101906100c991906110e9565b610521565b005b3480156100dc57600080fd5b506100f760048036038101906100f2919061107d565b6107c4565b005b34801561010557600080fd5b50610120600480360381019061011b9190610fe8565b61096b565b005b34801561012e57600080fd5b5061014960048036038101906101449190610fe8565b610a41565b6040516101569190611574565b60405180910390f35b34801561016b57600080fd5b5061018660048036038101906101819190610fbf565b610a8a565b6040516101949291906115b1565b60405180910390f35b3480156101a957600080fd5b506101c460048036038101906101bf9190610fe8565b610b56565b6040516101d29291906115e1565b60405180910390f35b3480156101e757600080fd5b5061020260048036038101906101fd9190610fe8565b610ca0565b60405161020f919061158f565b60405180910390f35b34801561022457600080fd5b5061023f600480360381019061023a919061107d565b610d5c565b005b600073ffffffffffffffffffffffffffffffffffffffff168173ffffffffffffffffffffffffffffffffffffffff1614156102b1576040517f08c379a00000000000000000000000000000000000000000000000000000000081526004016102a8906116b8565b60405180910390fd5b60008251116102f5576040517f08c379a00000000000000000000000000000000000000000000000000000000081526004016102ec906116d8565b60405180910390fd5b600073ffffffffffffffffffffffffffffffffffffffff1660018360405161031d9190611548565b908152602001604051809103902060009054906101000a900473ffffffffffffffffffffffffffffffffffffffff1673ffffffffffffffffffffffffffffffffffffffff16146103a2576040517f08c379a000000000000000000000000000000000000000000000000000000000815260040161039990611618565b60405180910390fd5b60405180604001604052808381526020018273ffffffffffffffffffffffffffffffffffffffff168152506000808373ffffffffffffffffffffffffffffffffffffffff1673ffffffffffffffffffffffffffffffffffffffff1681526020019081526020016000206000820151816000019080519060200190610427929190610e8a565b5060208201518160010160006101000a81548173ffffffffffffffffffffffffffffffffffffffff021916908373ffffffffffffffffffffffffffffffffffffffff160217905550905050806001836040516104839190611548565b908152602001604051809103902060006101000a81548173ffffffffffffffffffffffffffffffffffffffff021916908373ffffffffffffffffffffffffffffffffffffffff1602179055508073ffffffffffffffffffffffffffffffffffffffff167ff0ce2bb9ee9d83be52198e1e0c8e056122a2bb3937ab4d8712bd7d1ba43f50b583604051610515919061158f565b60405180910390a25050565b60008111610564576040517f08c379a000000000000000000000000000000000000000000000000000000000815260040161055b90611658565b60405180910390fd5b6003836040516105749190611548565b9081526020016040518091039020600201826040516105939190611548565b908152602001604051809103902060009054906101000a900460ff166105ee576040517f08c379a00000000000000000000000000000000000000000000000000000000081526004016105e590611718565b60405180910390fd5b60006001836040516106009190611548565b908152602001604051809103902060009054906101000a900473ffffffffffffffffffffffffffffffffffffffff169050600073ffffffffffffffffffffffffffffffffffffffff168173ffffffffffffffffffffffffffffffffffffffff1614156106a1576040517f08c379a0000000000000000000000000000000000000000000000000000000008152600401610698906116f8565b60405180910390fd5b6000620186a0905060008273ffffffffffffffffffffffffffffffffffffffff168483906040516106d19061155f565b600060405180830381858888f193505050503d806000811461070f576040519150601f19603f3d011682016040523d82523d6000602084013e610714565b606091505b5050905080610758576040517f08c379a000000000000000000000000000000000000000000000000000000000815260040161074f90611638565b60405180910390fd5b8273ffffffffffffffffffffffffffffffffffffffff168560405161077d9190611548565b60405180910390207f7f008d96c36851fc847fa61ac0df4950d04fef9cd0bcffea132cdf8f75c97b11866040516107b49190611758565b60405180910390a3505050505050565b6000815111610808576040517f08c379a00000000000000000000000000000000000000000000000000000000081526004016107ff906116d8565b60405180910390fd5b600073ffffffffffffffffffffffffffffffffffffffff166001826040516108309190611548565b908152602001604051809103902060009054906101000a900473ffffffffffffffffffffffffffffffffffffffff1673ffffffffffffffffffffffffffffffffffffffff1614156108b6576040517f08c379a00000000000000000000000000000000000000000000000000000000081526004016108ad90611698565b60405180910390fd5b60016003836040516108c89190611548565b9081526020016040518091039020600201826040516108e79190611548565b908152602001604051809103902060006101000a81548160ff02191690831515021790555060038260405161091c9190611548565b908152602001604051809103902060030181908060018154018082558091505060019003906000526020600020016000909190919091509080519060200190610966929190610e8a565b505050565b60008151116109af576040517f08c379a00000000000000000000000000000000000000000000000000000000081526004016109a690611678565b60405180910390fd5b6040518060200160405280828152506002826040516109ce9190611548565b908152602001604051809103902060008201518160000190805190602001906109f8929190610e8a565b5090505080604051610a0a9190611548565b60405180910390207f5b7669be3736ea38dcf4e8df96b6e06f1a3e0407d3e48976f4d7910298d946c360405160405180910390a250565b6001818051602081018201805184825260208301602085012081835280955050505050506000915054906101000a900473ffffffffffffffffffffffffffffffffffffffff1681565b6000602052806000526040600020600091509050806000018054610aad90611884565b80601f0160208091040260200160405190810160405280929190818152602001828054610ad990611884565b8015610b265780601f10610afb57610100808354040283529160200191610b26565b820191906000526020600020905b815481529060010190602001808311610b0957829003601f168201915b5050505050908060010160009054906101000a900473ffffffffffffffffffffffffffffffffffffffff16905082565b600381805160208101820180518482526020830160208501208183528095505050505050600091509050806000018054610b8f90611884565b80601f0160208091040260200160405190810160405280929190818152602001828054610bbb90611884565b8015610c085780601f10610bdd57610100808354040283529160200191610c08565b820191906000526020600020905b815481529060010190602001808311610beb57829003601f168201915b505050505090806001018054610c1d90611884565b80601f0160208091040260200160405190810160405280929190818152602001828054610c4990611884565b8015610c965780601f10610c6b57610100808354040283529160200191610c96565b820191906000526020600020905b815481529060010190602001808311610c7957829003601f168201915b5050505050905082565b600281805160208101820180518482526020830160208501208183528095505050505050600091509050806000018054610cd990611884565b80601f0160208091040260200160405190810160405280929190818152602001828054610d0590611884565b8015610d525780601f10610d2757610100808354040283529160200191610d52565b820191906000526020600020905b815481529060010190602001808311610d3557829003601f168201915b5050505050905081565b6000825111610da0576040517f08c379a0000000000000000000000000000000000000000000000000000000008152600401610d9790611678565b60405180910390fd5b6000815111610de4576040517f08c379a0000000000000000000000000000000000000000000000000000000008152600401610ddb90611738565b60405180910390fd5b6000600382604051610df69190611548565b9081526020016040518091039020905082816000019080519060200190610e1e929190610e8a565b5081816001019080519060200190610e37929190610e8a565b5081604051610e469190611548565b60405180910390207f8fc10d4d8170bb5f2302c2a4a4164ad24667825976b90fc732420eb63cd15d8084604051610e7d919061158f565b60405180910390a2505050565b828054610e9690611884565b90600052602060002090601f016020900481019282610eb85760008555610eff565b82601f10610ed157805160ff1916838001178555610eff565b82800160010185558215610eff579182015b82811115610efe578251825591602001919060010190610ee3565b5b509050610f0c9190610f10565b5090565b5b80821115610f29576000816000905550600101610f11565b5090565b6000610f40610f3b846117a4565b611773565b905082815260208101848484011115610f5857600080fd5b610f63848285611842565b509392505050565b600081359050610f7a81611925565b92915050565b600082601f830112610f9157600080fd5b8135610fa1848260208601610f2d565b91505092915050565b600081359050610fb98161193c565b92915050565b600060208284031215610fd157600080fd5b6000610fdf84828501610f6b565b91505092915050565b600060208284031215610ffa57600080fd5b600082013567ffffffffffffffff81111561101457600080fd5b61102084828501610f80565b91505092915050565b6000806040838503121561103c57600080fd5b600083013567ffffffffffffffff81111561105657600080fd5b61106285828601610f80565b925050602061107385828601610f6b565b9150509250929050565b6000806040838503121561109057600080fd5b600083013567ffffffffffffffff8111156110aa57600080fd5b6110b685828601610f80565b925050602083013567ffffffffffffffff8111156110d357600080fd5b6110df85828601610f80565b9150509250929050565b6000806000606084860312156110fe57600080fd5b600084013567ffffffffffffffff81111561111857600080fd5b61112486828701610f80565b935050602084013567ffffffffffffffff81111561114157600080fd5b61114d86828701610f80565b925050604061115e86828701610faa565b9150509250925092565b61117181611806565b82525050565b6000611182826117d4565b61118c81856117ea565b935061119c818560208601611851565b6111a581611914565b840191505092915050565b60006111bb826117d4565b6111c581856117fb565b93506111d5818560208601611851565b80840191505092915050565b60006111ee6028836117ea565b91507f496e666c75656e63657220776974682074686973206e616d6520616c7265616460008301527f79206578697374730000000000000000000000000000000000000000000000006020830152604082019050919050565b60006112546022836117ea565b91507f4661696c656420746f2073656e6420457468657220746f20696e666c75656e6360008301527f65720000000000000000000000000000000000000000000000000000000000006020830152604082019050919050565b60006112ba601d836117ea565b91507f416d6f756e74206d7573742062652067726561746572207468616e20300000006000830152602082019050919050565b60006112fa601d836117ea565b91507f427573696e657373206e616d652063616e6e6f7420626520656d7074790000006000830152602082019050919050565b600061133a6019836117ea565b91507f496e666c75656e63657220646f6573206e6f74206578697374000000000000006000830152602082019050919050565b600061137a6029836117ea565b91507f57616c6c657420616464726573732063616e6e6f7420626520746865207a657260008301527f6f206164647265737300000000000000000000000000000000000000000000006020830152604082019050919050565b60006113e0601f836117ea565b91507f496e666c75656e636572206e616d652063616e6e6f7420626520656d707479006000830152602082019050919050565b60006114206028836117ea565b91507f496e666c75656e63657220776974682074686973206e616d6520646f6573206e60008301527f6f742065786973740000000000000000000000000000000000000000000000006020830152604082019050919050565b60006114866026836117ea565b91507f496e666c75656e636572206973206e6f742070617274206f662074686520636160008301527f6d706169676e00000000000000000000000000000000000000000000000000006020830152604082019050919050565b60006114ec6000836117df565b9150600082019050919050565b6000611506601d836117ea565b91507f43616d706169676e206e616d652063616e6e6f7420626520656d7074790000006000830152602082019050919050565b61154281611838565b82525050565b600061155482846111b0565b915081905092915050565b600061156a826114df565b9150819050919050565b60006020820190506115896000830184611168565b92915050565b600060208201905081810360008301526115a98184611177565b905092915050565b600060408201905081810360008301526115cb8185611177565b90506115da6020830184611168565b9392505050565b600060408201905081810360008301526115fb8185611177565b9050818103602083015261160f8184611177565b90509392505050565b60006020820190508181036000830152611631816111e1565b9050919050565b6000602082019050818103600083015261165181611247565b9050919050565b60006020820190508181036000830152611671816112ad565b9050919050565b60006020820190508181036000830152611691816112ed565b9050919050565b600060208201905081810360008301526116b18161132d565b9050919050565b600060208201905081810360008301526116d18161136d565b9050919050565b600060208201905081810360008301526116f1816113d3565b9050919050565b6000602082019050818103600083015261171181611413565b9050919050565b6000602082019050818103600083015261173181611479565b9050919050565b60006020820190508181036000830152611751816114f9565b9050919050565b600060208201905061176d6000830184611539565b92915050565b6000604051905081810181811067ffffffffffffffff8211171561179a576117996118e5565b5b8060405250919050565b600067ffffffffffffffff8211156117bf576117be6118e5565b5b601f19601f8301169050602081019050919050565b600081519050919050565b600081905092915050565b600082825260208201905092915050565b600081905092915050565b600061181182611818565b9050919050565b600073ffffffffffffffffffffffffffffffffffffffff82169050919050565b6000819050919050565b82818337600083830152505050565b60005b8381101561186f578082015181840152602081019050611854565b8381111561187e576000848401525b50505050565b6000600282049050600182168061189c57607f821691505b602082108114156118b0576118af6118b6565b5b50919050565b7f4e487b7100000000000000000000000000000000000000000000000000000000600052602260045260246000fd5b7f4e487b7100000000000000000000000000000000000000000000000000000000600052604160045260246000fd5b6000601f19601f8301169050919050565b61192e81611806565b811461193957600080fd5b50565b61194581611838565b811461195057600080fd5b5056fea26469706673582212203162ae4a9dd66ddff3bbf26a123a012e29ddff0f71fe47b4cb1f0c1b16794dbb64736f6c63430008000033",
  "immutableReferences": {},
  "source": "// SPDX-License-Identifier: MIT\npragma solidity ^0.8.0;\n\ncontract Web3MarketingSuite {\n    // Structs to define the user types\n    struct Influencer {\n        string name;\n        address walletAddress;\n    }\n\n    struct Business {\n        string name;\n    }\n\n    // Mapping to store influencers by their wallet address\n    mapping(address => Influencer) public influencersByAddress;\n\n    // Mapping to store influencers by their name\n    mapping(string => address) public influencersByName;\n\n    // Mapping to store businesses by their name\n    mapping(string => Business) public businesses;\n\n    // Mapping to store campaigns by their campaign name\n    mapping(string => Campaign) public campaignsByName;\n\n    // Struct to represent a campaign\n    struct Campaign {\n        string businessName;\n        string campaignName;\n        mapping(string => bool) influencers; // Mapping to store influencers in the campaign\n        string[] influencerNames; // Array to store influencer names\n    }\n\n    // Event to emit when a new influencer is registered\n    event InfluencerRegistered(address indexed walletAddress, string name);\n\n    // Event to emit when a new business is registered\n    event BusinessRegistered(string indexed name);\n\n    // Event to emit when a campaign is created\n    event CampaignCreated(string indexed campaignName, string businessName);\n\n    // Event to emit when a transaction is made to an influencer\n    event TransactionToInfluencer(string indexed influencerName, address indexed influencerAddress, uint256 amount);\n\n    // Function to register a new influencer\n    function registerInfluencer(string memory _name, address _walletAddress) public {\n        require(_walletAddress != address(0), \"Wallet address cannot be the zero address\");\n        require(bytes(_name).length > 0, \"Influencer name cannot be empty\");\n        require(influencersByName[_name] == address(0), \"Influencer with this name already exists\");\n        \n        influencersByAddress[_walletAddress] = Influencer(_name, _walletAddress);\n        influencersByName[_name] = _walletAddress;\n        \n        emit InfluencerRegistered(_walletAddress, _name);\n    }\n\n    // Function to register a new business\n    function registerBusiness(string memory _name) public {\n        require(bytes(_name).length > 0, \"Business name cannot be empty\");\n        businesses[_name] = Business(_name);\n        emit BusinessRegistered(_name);\n    }\n\n    // Function to create a new campaign\n    function createCampaign(string memory _businessName, string memory _campaignName) public {\n        require(bytes(_businessName).length > 0, \"Business name cannot be empty\");\n        require(bytes(_campaignName).length > 0, \"Campaign name cannot be empty\");\n\n        // Create the campaign with the campaign name as the key\n        Campaign storage newCampaign = campaignsByName[_campaignName];\n        newCampaign.businessName = _businessName;\n        newCampaign.campaignName = _campaignName;\n\n        emit CampaignCreated(_campaignName, _businessName);\n    }\n\n    // Function to add an influencer to a campaign\n    function addInfluencerToCampaign(string memory _campaignName, string memory _influencerName) public {\n        require(bytes(_influencerName).length > 0, \"Influencer name cannot be empty\");\n        require(influencersByName[_influencerName] != address(0), \"Influencer does not exist\");\n\n        // Add the influencer to the campaign\n        campaignsByName[_campaignName].influencers[_influencerName] = true;\n        campaignsByName[_campaignName].influencerNames.push(_influencerName); // Add the influencer name to the array\n    }\n\n    // Function to make a transaction to an influencer in a campaign\n    function makeTransactionToInfluencer(string memory _campaignName, string memory _influencerName, uint256 _amount) public payable {\n        require(_amount > 0, \"Amount must be greater than 0\");\n        require(campaignsByName[_campaignName].influencers[_influencerName], \"Influencer is not part of the campaign\");\n\n        address influencerAddress = influencersByName[_influencerName];\n        require(influencerAddress != address(0), \"Influencer with this name does not exist\");\n\n        // Set a maximum gas limit for the transaction\n        uint256 maxGas = 100000; // Example maximum gas limit\n\n        // Transfer funds to the influencer's address with the maximum gas limit\n        (bool success, ) = payable(influencerAddress).call{value: _amount, gas: maxGas}(\"\");\n        require(success, \"Failed to send Ether to influencer\");\n\n        emit TransactionToInfluencer(_influencerName, influencerAddress, _amount);\n    }\n}",
  "sourcePath": "C:\\Users\\lisban\\Desktop\\Major Project\\Influverse\\Web3MarketingSuite\\contracts\\Web3MarketingSuite.sol",
  "compiler": {
    "name": "solc",
    "version": "0.8.0+commit.c7dfd78e.Emscripten.clang"
  },
  "schemaVersion": "3.4.16",
  "updatedAt": "2024-05-04T17:09:39.623Z",
  "networkType": "ethereum",
  "devdoc": {
    "kind": "dev",
    "methods": {},
    "version": 1
  },
  "userdoc": {
    "kind": "user",
    "methods": {},
    "version": 1
  }
}