{
  "contractName": "Web3MarketingSuite",
  "abi": [
    {
      "anonymous": false,
      "inputs": [
        {
          "indexed": true,
          "internalType": "string",
          "name": "name",
          "type": "string"
        }
      ],
      "name": "BusinessRegistered",
      "type": "event"
    },
    {
      "anonymous": false,
      "inputs": [
        {
          "indexed": true,
          "internalType": "address",
          "name": "walletAddress",
          "type": "address"
        },
        {
          "indexed": false,
          "internalType": "string",
          "name": "name",
          "type": "string"
        }
      ],
      "name": "InfluencerRegistered",
      "type": "event"
    },
    {
      "anonymous": false,
      "inputs": [
        {
          "indexed": true,
          "internalType": "string",
          "name": "influencerName",
          "type": "string"
        },
        {
          "indexed": true,
          "internalType": "address",
          "name": "influencerAddress",
          "type": "address"
        },
        {
          "indexed": false,
          "internalType": "uint256",
          "name": "amount",
          "type": "uint256"
        }
      ],
      "name": "TransactionToInfluencer",
      "type": "event"
    },
    {
      "inputs": [
        {
          "internalType": "string",
          "name": "",
          "type": "string"
        }
      ],
      "name": "businesses",
      "outputs": [
        {
          "internalType": "string",
          "name": "name",
          "type": "string"
        }
      ],
      "stateMutability": "view",
      "type": "function",
      "constant": true
    },
    {
      "inputs": [
        {
          "internalType": "string",
          "name": "",
          "type": "string"
        },
        {
          "internalType": "string",
          "name": "",
          "type": "string"
        }
      ],
      "name": "campaigns",
      "outputs": [
        {
          "internalType": "string",
          "name": "businessName",
          "type": "string"
        },
        {
          "internalType": "string",
          "name": "campaignName",
          "type": "string"
        }
      ],
      "stateMutability": "view",
      "type": "function",
      "constant": true
    },
    {
      "inputs": [
        {
          "internalType": "address",
          "name": "",
          "type": "address"
        }
      ],
      "name": "influencersByAddress",
      "outputs": [
        {
          "internalType": "string",
          "name": "name",
          "type": "string"
        },
        {
          "internalType": "address",
          "name": "walletAddress",
          "type": "address"
        }
      ],
      "stateMutability": "view",
      "type": "function",
      "constant": true
    },
    {
      "inputs": [
        {
          "internalType": "string",
          "name": "",
          "type": "string"
        }
      ],
      "name": "influencersByName",
      "outputs": [
        {
          "internalType": "address",
          "name": "",
          "type": "address"
        }
      ],
      "stateMutability": "view",
      "type": "function",
      "constant": true
    },
    {
      "inputs": [
        {
          "internalType": "string",
          "name": "_name",
          "type": "string"
        },
        {
          "internalType": "address",
          "name": "_walletAddress",
          "type": "address"
        }
      ],
      "name": "registerInfluencer",
      "outputs": [],
      "stateMutability": "nonpayable",
      "type": "function"
    },
    {
      "inputs": [
        {
          "internalType": "string",
          "name": "_name",
          "type": "string"
        }
      ],
      "name": "registerBusiness",
      "outputs": [],
      "stateMutability": "nonpayable",
      "type": "function"
    },
    {
      "inputs": [
        {
          "internalType": "string",
          "name": "_influencerName",
          "type": "string"
        },
        {
          "internalType": "uint256",
          "name": "_amount",
          "type": "uint256"
        }
      ],
      "name": "makeTransactionToInfluencer",
      "outputs": [],
      "stateMutability": "payable",
      "type": "function",
      "payable": true
    }
  ],
  "bytecode": "0x608060405234801561001057600080fd5b50611429806100206000396000f3fe6080604052600436106100705760003560e01c80637cc78a0a1161004e5780637cc78a0a14610105578063937f68e014610142578063b45e1c4e14610180578063cfb1aaf4146101bd57610070565b8063014a5c7a1461007557806360e7f7d11461009e5780636f3fb5e5146100c7575b600080fd5b34801561008157600080fd5b5061009c60048036038101906100979190610c64565b6101d9565b005b3480156100aa57600080fd5b506100c560048036038101906100c09190610c23565b6104b9565b005b3480156100d357600080fd5b506100ee60048036038101906100e99190610cb8565b61058f565b6040516100fc9291906110fc565b60405180910390f35b34801561011157600080fd5b5061012c60048036038101906101279190610c23565b6106fc565b604051610139919061108f565b60405180910390f35b34801561014e57600080fd5b5061016960048036038101906101649190610bfa565b610745565b6040516101779291906110cc565b60405180910390f35b34801561018c57600080fd5b506101a760048036038101906101a29190610c23565b610811565b6040516101b491906110aa565b60405180910390f35b6101d760048036038101906101d29190610d24565b6108cd565b005b600073ffffffffffffffffffffffffffffffffffffffff168173ffffffffffffffffffffffffffffffffffffffff161415610249576040517f08c379a000000000000000000000000000000000000000000000000000000000815260040161024090611193565b60405180910390fd5b600082511161028d576040517f08c379a0000000000000000000000000000000000000000000000000000000008152600401610284906111d3565b60405180910390fd5b600073ffffffffffffffffffffffffffffffffffffffff166001836040516102b59190611063565b908152602001604051809103902060009054906101000a900473ffffffffffffffffffffffffffffffffffffffff1673ffffffffffffffffffffffffffffffffffffffff161461033a576040517f08c379a000000000000000000000000000000000000000000000000000000000815260040161033190611133565b60405180910390fd5b60405180604001604052808381526020018273ffffffffffffffffffffffffffffffffffffffff168152506000808373ffffffffffffffffffffffffffffffffffffffff1673ffffffffffffffffffffffffffffffffffffffff16815260200190815260200160002060008201518160000190805190602001906103bf929190610ac5565b5060208201518160010160006101000a81548173ffffffffffffffffffffffffffffffffffffffff021916908373ffffffffffffffffffffffffffffffffffffffff1602179055509050508060018360405161041b9190611063565b908152602001604051809103902060006101000a81548173ffffffffffffffffffffffffffffffffffffffff021916908373ffffffffffffffffffffffffffffffffffffffff1602179055508073ffffffffffffffffffffffffffffffffffffffff167ff0ce2bb9ee9d83be52198e1e0c8e056122a2bb3937ab4d8712bd7d1ba43f50b5836040516104ad91906110aa565b60405180910390a25050565b60008151116104fd576040517f08c379a00000000000000000000000000000000000000000000000000000000081526004016104f490611173565b60405180910390fd5b60405180602001604052808281525060028260405161051c9190611063565b90815260200160405180910390206000820151816000019080519060200190610546929190610ac5565b50905050806040516105589190611063565b60405180910390207f5b7669be3736ea38dcf4e8df96b6e06f1a3e0407d3e48976f4d7910298d946c360405160405180910390a250565b60038280516020810182018051848252602083016020850120818352809550505050505081805160208101820180518482526020830160208501208183528095505050505050600091509150508060000180546105eb90611324565b80601f016020809104026020016040519081016040528092919081815260200182805461061790611324565b80156106645780601f1061063957610100808354040283529160200191610664565b820191906000526020600020905b81548152906001019060200180831161064757829003601f168201915b50505050509080600101805461067990611324565b80601f01602080910402602001604051908101604052809291908181526020018280546106a590611324565b80156106f25780601f106106c7576101008083540402835291602001916106f2565b820191906000526020600020905b8154815290600101906020018083116106d557829003601f168201915b5050505050905082565b6001818051602081018201805184825260208301602085012081835280955050505050506000915054906101000a900473ffffffffffffffffffffffffffffffffffffffff1681565b600060205280600052604060002060009150905080600001805461076890611324565b80601f016020809104026020016040519081016040528092919081815260200182805461079490611324565b80156107e15780601f106107b6576101008083540402835291602001916107e1565b820191906000526020600020905b8154815290600101906020018083116107c457829003601f168201915b5050505050908060010160009054906101000a900473ffffffffffffffffffffffffffffffffffffffff16905082565b60028180516020810182018051848252602083016020850120818352809550505050505060009150905080600001805461084a90611324565b80601f016020809104026020016040519081016040528092919081815260200182805461087690611324565b80156108c35780601f10610898576101008083540402835291602001916108c3565b820191906000526020600020905b8154815290600101906020018083116108a657829003601f168201915b5050505050905081565b6000825111610911576040517f08c379a0000000000000000000000000000000000000000000000000000000008152600401610908906111d3565b60405180910390fd5b80341015610954576040517f08c379a000000000000000000000000000000000000000000000000000000000815260040161094b906111b3565b60405180910390fd5b60006001836040516109669190611063565b908152602001604051809103902060009054906101000a900473ffffffffffffffffffffffffffffffffffffffff169050600073ffffffffffffffffffffffffffffffffffffffff168173ffffffffffffffffffffffffffffffffffffffff161415610a07576040517f08c379a00000000000000000000000000000000000000000000000000000000081526004016109fe906111f3565b60405180910390fd5b6000620186a0905060008273ffffffffffffffffffffffffffffffffffffffff16848390604051610a379061107a565b600060405180830381858888f193505050503d8060008114610a75576040519150601f19603f3d011682016040523d82523d6000602084013e610a7a565b606091505b5050905080610abe576040517f08c379a0000000000000000000000000000000000000000000000000000000008152600401610ab590611153565b60405180910390fd5b5050505050565b828054610ad190611324565b90600052602060002090601f016020900481019282610af35760008555610b3a565b82601f10610b0c57805160ff1916838001178555610b3a565b82800160010185558215610b3a579182015b82811115610b39578251825591602001919060010190610b1e565b5b509050610b479190610b4b565b5090565b5b80821115610b64576000816000905550600101610b4c565b5090565b6000610b7b610b7684611244565b611213565b905082815260208101848484011115610b9357600080fd5b610b9e8482856112e2565b509392505050565b600081359050610bb5816113c5565b92915050565b600082601f830112610bcc57600080fd5b8135610bdc848260208601610b68565b91505092915050565b600081359050610bf4816113dc565b92915050565b600060208284031215610c0c57600080fd5b6000610c1a84828501610ba6565b91505092915050565b600060208284031215610c3557600080fd5b600082013567ffffffffffffffff811115610c4f57600080fd5b610c5b84828501610bbb565b91505092915050565b60008060408385031215610c7757600080fd5b600083013567ffffffffffffffff811115610c9157600080fd5b610c9d85828601610bbb565b9250506020610cae85828601610ba6565b9150509250929050565b60008060408385031215610ccb57600080fd5b600083013567ffffffffffffffff811115610ce557600080fd5b610cf185828601610bbb565b925050602083013567ffffffffffffffff811115610d0e57600080fd5b610d1a85828601610bbb565b9150509250929050565b60008060408385031215610d3757600080fd5b600083013567ffffffffffffffff811115610d5157600080fd5b610d5d85828601610bbb565b9250506020610d6e85828601610be5565b9150509250929050565b610d81816112a6565b82525050565b6000610d9282611274565b610d9c818561128a565b9350610dac8185602086016112f1565b610db5816113b4565b840191505092915050565b6000610dcb82611274565b610dd5818561129b565b9350610de58185602086016112f1565b80840191505092915050565b6000610dfe60288361128a565b91507f496e666c75656e63657220776974682074686973206e616d6520616c7265616460008301527f79206578697374730000000000000000000000000000000000000000000000006020830152604082019050919050565b6000610e6460228361128a565b91507f4661696c656420746f2073656e6420457468657220746f20696e666c75656e6360008301527f65720000000000000000000000000000000000000000000000000000000000006020830152604082019050919050565b6000610eca601d8361128a565b91507f427573696e657373206e616d652063616e6e6f7420626520656d7074790000006000830152602082019050919050565b6000610f0a60298361128a565b91507f57616c6c657420616464726573732063616e6e6f7420626520746865207a657260008301527f6f206164647265737300000000000000000000000000000000000000000000006020830152604082019050919050565b6000610f7060128361128a565b91507f496e73756666696369656e742066756e647300000000000000000000000000006000830152602082019050919050565b6000610fb0601f8361128a565b91507f496e666c75656e636572206e616d652063616e6e6f7420626520656d707479006000830152602082019050919050565b6000610ff060288361128a565b91507f496e666c75656e63657220776974682074686973206e616d6520646f6573206e60008301527f6f742065786973740000000000000000000000000000000000000000000000006020830152604082019050919050565b600061105660008361127f565b9150600082019050919050565b600061106f8284610dc0565b915081905092915050565b600061108582611049565b9150819050919050565b60006020820190506110a46000830184610d78565b92915050565b600060208201905081810360008301526110c48184610d87565b905092915050565b600060408201905081810360008301526110e68185610d87565b90506110f56020830184610d78565b9392505050565b600060408201905081810360008301526111168185610d87565b9050818103602083015261112a8184610d87565b90509392505050565b6000602082019050818103600083015261114c81610df1565b9050919050565b6000602082019050818103600083015261116c81610e57565b9050919050565b6000602082019050818103600083015261118c81610ebd565b9050919050565b600060208201905081810360008301526111ac81610efd565b9050919050565b600060208201905081810360008301526111cc81610f63565b9050919050565b600060208201905081810360008301526111ec81610fa3565b9050919050565b6000602082019050818103600083015261120c81610fe3565b9050919050565b6000604051905081810181811067ffffffffffffffff8211171561123a57611239611385565b5b8060405250919050565b600067ffffffffffffffff82111561125f5761125e611385565b5b601f19601f8301169050602081019050919050565b600081519050919050565b600081905092915050565b600082825260208201905092915050565b600081905092915050565b60006112b1826112b8565b9050919050565b600073ffffffffffffffffffffffffffffffffffffffff82169050919050565b6000819050919050565b82818337600083830152505050565b60005b8381101561130f5780820151818401526020810190506112f4565b8381111561131e576000848401525b50505050565b6000600282049050600182168061133c57607f821691505b602082108114156113505761134f611356565b5b50919050565b7f4e487b7100000000000000000000000000000000000000000000000000000000600052602260045260246000fd5b7f4e487b7100000000000000000000000000000000000000000000000000000000600052604160045260246000fd5b6000601f19601f8301169050919050565b6113ce816112a6565b81146113d957600080fd5b50565b6113e5816112d8565b81146113f057600080fd5b5056fea26469706673582212206528b9396eab371094040910c7b5c45fddf3478d2b03200aff14bb735148b35364736f6c63430008000033",
  "immutableReferences": {},
  "source": "// SPDX-License-Identifier: MIT\npragma solidity ^0.8.0;\n\ncontract Web3MarketingSuite {\n    // Structs to define the user types\n    struct Influencer {\n        string name;\n        address walletAddress;\n    }\n\n    struct Business {\n        string name;\n    }\n\n    // Mapping to store influencers by their wallet address\n    mapping(address => Influencer) public influencersByAddress;\n\n    // Mapping to store influencers by their name\n    mapping(string => address) public influencersByName;\n\n    // Mapping to store businesses by their name\n    mapping(string => Business) public businesses;\n\n    // Mapping to store campaigns by their business name\n    mapping(string => mapping(string => Campaign)) public campaigns;\n\n    // Struct to represent a campaign\n    struct Campaign {\n        string businessName;\n        string campaignName;\n        mapping(string => bool) influencers; // Mapping to store influencers in the campaign\n    }\n\n    // Event to emit when a new influencer is registered\n    event InfluencerRegistered(address indexed walletAddress, string name);\n\n    // Event to emit when a new business is registered\n    event BusinessRegistered(string indexed name);\n\n    // Event to emit when a transaction is made to an influencer\n    event TransactionToInfluencer(string indexed influencerName, address indexed influencerAddress, uint256 amount);\n\n    // Function to register a new influencer\n    function registerInfluencer(string memory _name, address _walletAddress) public {\n        require(_walletAddress!= address(0), \"Wallet address cannot be the zero address\");\n        require(bytes(_name).length > 0, \"Influencer name cannot be empty\");\n        require(influencersByName[_name] == address(0), \"Influencer with this name already exists\");\n        \n        influencersByAddress[_walletAddress] = Influencer(_name, _walletAddress);\n        influencersByName[_name] = _walletAddress;\n        \n        emit InfluencerRegistered(_walletAddress, _name);\n    }\n\n    // Function to register a new business\n    function registerBusiness(string memory _name) public {\n        require(bytes(_name).length > 0, \"Business name cannot be empty\");\n        businesses[_name] = Business(_name);\n        emit BusinessRegistered(_name);\n    }\n\n    // Function to make a transaction to an influencer with a specified gas limit\n    function makeTransactionToInfluencer(string memory _influencerName, uint256 _amount) public payable {\n    require(bytes(_influencerName).length > 0, \"Influencer name cannot be empty\");\n    require(msg.value >= _amount, \"Insufficient funds\");\n\n    address influencerAddress = influencersByName[_influencerName];\n    require(influencerAddress!= address(0), \"Influencer with this name does not exist\");\n\n    // Set a maximum gas limit for the transaction\n    uint256 maxGas = 100000; // Example maximum gas limit\n\n    // Transfer funds to the influencer's address with the maximum gas limit\n    (bool success, ) = payable(influencerAddress).call{value: _amount, gas: maxGas}(\"\");\n    require(success, \"Failed to send Ether to influencer\");\n}\n}\n",
  "sourcePath": "C:\\Users\\lisban\\Desktop\\Major Project\\Influverse\\Web3MarketingSuite\\contracts\\Web3MarketingSuite.sol",
  "compiler": {
    "name": "solc",
    "version": "0.8.0+commit.c7dfd78e.Emscripten.clang"
  },
  "schemaVersion": "3.4.16",
  "updatedAt": "2024-05-03T16:56:13.730Z",
  "networkType": "ethereum",
  "devdoc": {
    "kind": "dev",
    "methods": {},
    "version": 1
  },
  "userdoc": {
    "kind": "user",
    "methods": {},
    "version": 1
  }
}