{
  "contractName": "Web3MarketingSuite",
  "abi": [
    {
      "anonymous": false,
      "inputs": [
        {
          "indexed": true,
          "internalType": "uint256",
          "name": "businessId",
          "type": "uint256"
        },
        {
          "indexed": false,
          "internalType": "string",
          "name": "name",
          "type": "string"
        }
      ],
      "name": "BusinessCreated",
      "type": "event"
    },
    {
      "anonymous": false,
      "inputs": [
        {
          "indexed": true,
          "internalType": "uint256",
          "name": "campaignId",
          "type": "uint256"
        },
        {
          "indexed": false,
          "internalType": "string",
          "name": "name",
          "type": "string"
        },
        {
          "indexed": false,
          "internalType": "uint256",
          "name": "startDate",
          "type": "uint256"
        },
        {
          "indexed": false,
          "internalType": "uint256",
          "name": "endDate",
          "type": "uint256"
        },
        {
          "indexed": false,
          "internalType": "uint256",
          "name": "budget",
          "type": "uint256"
        },
        {
          "indexed": false,
          "internalType": "uint256",
          "name": "businessId",
          "type": "uint256"
        }
      ],
      "name": "CampaignCreated",
      "type": "event"
    },
    {
      "anonymous": false,
      "inputs": [
        {
          "indexed": true,
          "internalType": "uint256",
          "name": "campaignId",
          "type": "uint256"
        },
        {
          "indexed": true,
          "internalType": "address",
          "name": "influencer",
          "type": "address"
        },
        {
          "indexed": false,
          "internalType": "string",
          "name": "name",
          "type": "string"
        }
      ],
      "name": "InfluencerAdded",
      "type": "event"
    },
    {
      "anonymous": false,
      "inputs": [
        {
          "indexed": true,
          "internalType": "uint256",
          "name": "campaignId",
          "type": "uint256"
        },
        {
          "indexed": true,
          "internalType": "address",
          "name": "influencer",
          "type": "address"
        }
      ],
      "name": "InfluencerRemoved",
      "type": "event"
    },
    {
      "anonymous": false,
      "inputs": [
        {
          "indexed": true,
          "internalType": "uint256",
          "name": "campaignId",
          "type": "uint256"
        },
        {
          "indexed": true,
          "internalType": "address",
          "name": "influencer",
          "type": "address"
        },
        {
          "indexed": false,
          "internalType": "uint256",
          "name": "amount",
          "type": "uint256"
        }
      ],
      "name": "TransactionMade",
      "type": "event"
    },
    {
      "inputs": [],
      "name": "businessCount",
      "outputs": [
        {
          "internalType": "uint256",
          "name": "",
          "type": "uint256"
        }
      ],
      "stateMutability": "view",
      "type": "function"
    },
    {
      "inputs": [
        {
          "internalType": "uint256",
          "name": "",
          "type": "uint256"
        }
      ],
      "name": "businesses",
      "outputs": [
        {
          "internalType": "uint256",
          "name": "id",
          "type": "uint256"
        },
        {
          "internalType": "string",
          "name": "name",
          "type": "string"
        }
      ],
      "stateMutability": "view",
      "type": "function"
    },
    {
      "inputs": [],
      "name": "campaignCount",
      "outputs": [
        {
          "internalType": "uint256",
          "name": "",
          "type": "uint256"
        }
      ],
      "stateMutability": "view",
      "type": "function"
    },
    {
      "inputs": [
        {
          "internalType": "uint256",
          "name": "",
          "type": "uint256"
        }
      ],
      "name": "campaigns",
      "outputs": [
        {
          "internalType": "uint256",
          "name": "id",
          "type": "uint256"
        },
        {
          "internalType": "string",
          "name": "name",
          "type": "string"
        },
        {
          "internalType": "uint256",
          "name": "startDate",
          "type": "uint256"
        },
        {
          "internalType": "uint256",
          "name": "endDate",
          "type": "uint256"
        },
        {
          "internalType": "uint256",
          "name": "budget",
          "type": "uint256"
        },
        {
          "internalType": "uint256",
          "name": "businessId",
          "type": "uint256"
        }
      ],
      "stateMutability": "view",
      "type": "function"
    },
    {
      "inputs": [
        {
          "internalType": "string",
          "name": "_name",
          "type": "string"
        }
      ],
      "name": "createBusiness",
      "outputs": [],
      "stateMutability": "nonpayable",
      "type": "function"
    },
    {
      "inputs": [
        {
          "internalType": "string",
          "name": "_businessName",
          "type": "string"
        },
        {
          "internalType": "string",
          "name": "_name",
          "type": "string"
        },
        {
          "internalType": "uint256",
          "name": "_startDate",
          "type": "uint256"
        },
        {
          "internalType": "uint256",
          "name": "_endDate",
          "type": "uint256"
        },
        {
          "internalType": "uint256",
          "name": "_budget",
          "type": "uint256"
        }
      ],
      "name": "createCampaign",
      "outputs": [],
      "stateMutability": "nonpayable",
      "type": "function"
    },
    {
      "inputs": [
        {
          "internalType": "uint256",
          "name": "_campaignId",
          "type": "uint256"
        },
        {
          "internalType": "address",
          "name": "_influencer",
          "type": "address"
        },
        {
          "internalType": "string",
          "name": "_name",
          "type": "string"
        }
      ],
      "name": "addInfluencer",
      "outputs": [],
      "stateMutability": "nonpayable",
      "type": "function"
    },
    {
      "inputs": [
        {
          "internalType": "uint256",
          "name": "_campaignId",
          "type": "uint256"
        },
        {
          "internalType": "address",
          "name": "_influencer",
          "type": "address"
        }
      ],
      "name": "removeInfluencer",
      "outputs": [],
      "stateMutability": "nonpayable",
      "type": "function"
    },
    {
      "inputs": [
        {
          "internalType": "uint256",
          "name": "_campaignId",
          "type": "uint256"
        }
      ],
      "name": "getCampaignDetails",
      "outputs": [
        {
          "internalType": "uint256",
          "name": "",
          "type": "uint256"
        },
        {
          "internalType": "string",
          "name": "",
          "type": "string"
        },
        {
          "internalType": "uint256",
          "name": "",
          "type": "uint256"
        },
        {
          "internalType": "uint256",
          "name": "",
          "type": "uint256"
        },
        {
          "internalType": "uint256",
          "name": "",
          "type": "uint256"
        }
      ],
      "stateMutability": "view",
      "type": "function"
    },
    {
      "inputs": [
        {
          "internalType": "uint256",
          "name": "startIndex",
          "type": "uint256"
        },
        {
          "internalType": "uint256",
          "name": "endIndex",
          "type": "uint256"
        }
      ],
      "name": "getCampaigns",
      "outputs": [
        {
          "internalType": "uint256[]",
          "name": "",
          "type": "uint256[]"
        }
      ],
      "stateMutability": "view",
      "type": "function"
    },
    {
      "inputs": [
        {
          "internalType": "string",
          "name": "_campaignName",
          "type": "string"
        },
        {
          "internalType": "address payable",
          "name": "_influencer",
          "type": "address"
        },
        {
          "internalType": "uint256",
          "name": "_amount",
          "type": "uint256"
        }
      ],
      "name": "makeTransaction",
      "outputs": [],
      "stateMutability": "payable",
      "type": "function"
    },
    {
      "inputs": [
        {
          "internalType": "string",
          "name": "_name",
          "type": "string"
        }
      ],
      "name": "getCampaignIdByName",
      "outputs": [
        {
          "internalType": "uint256",
          "name": "",
          "type": "uint256"
        }
      ],
      "stateMutability": "view",
      "type": "function"
    }
  ],
  "bytecode": "0x60806040525f80555f600155348015610016575f80fd5b50611cdc806100245f395ff3fe6080604052600436106100a6575f3560e01c8063926912441161006357806392691244146101bd578063b5c89219146101f9578063b984c6ec14610221578063d17002551461025e578063d993de6214610286578063da2aff2a146102c6576100a6565b806309051566146100aa5780630d1291e3146100e6578063141961bc146101025780636aff4593146101435780637274e30d1461016b5780637eaf273514610195575b5f80fd5b3480156100b5575f80fd5b506100d060048036038101906100cb9190610e1e565b6102f0565b6040516100dd9190610f13565b60405180910390f35b61010060048036038101906100fb91906110c9565b610426565b005b34801561010d575f80fd5b5061012860048036038101906101239190611135565b6105f2565b60405161013a969594939291906111e9565b60405180910390f35b34801561014e575f80fd5b506101696004803603810190610164919061128a565b6106b0565b005b348015610176575f80fd5b5061017f610766565b60405161018c91906112f6565b60405180910390f35b3480156101a0575f80fd5b506101bb60048036038101906101b6919061130f565b61076c565b005b3480156101c8575f80fd5b506101e360048036038101906101de919061134d565b610813565b6040516101f091906112f6565b60405180910390f35b348015610204575f80fd5b5061021f600480360381019061021a9190611394565b6108f9565b005b34801561022c575f80fd5b5061024760048036038101906102429190611135565b6109ff565b604051610255929190611443565b60405180910390f35b348015610269575f80fd5b50610284600480360381019061027f919061134d565b610aa5565b005b348015610291575f80fd5b506102ac60048036038101906102a79190611135565b610b40565b6040516102bd959493929190611471565b60405180910390f35b3480156102d1575f80fd5b506102da610c07565b6040516102e791906112f6565b60405180910390f35b6060828211610334576040517f08c379a000000000000000000000000000000000000000000000000000000000815260040161032b90611539565b60405180910390fd5b600154821115610379576040517f08c379a0000000000000000000000000000000000000000000000000000000008152600401610370906115a1565b60405180910390fd5b5f838361038691906115ec565b67ffffffffffffffff81111561039f5761039e610f4b565b5b6040519080825280602002602001820160405280156103cd5781602001602082028036833780820191505090505b5090505f8490505b8381101561041b57808286836103eb91906115ec565b815181106103fc576103fb61161f565b5b60200260200101818152505080806104139061164c565b9150506103d5565b508091505092915050565b5f61043084610c0c565b90505f8103610474576040517f08c379a000000000000000000000000000000000000000000000000000000000815260040161046b906116dd565b60405180910390fd5b5f60035f8381526020019081526020015f2090505f816005015f8673ffffffffffffffffffffffffffffffffffffffff1673ffffffffffffffffffffffffffffffffffffffff1681526020019081526020015f2080546104d390611728565b905011610515576040517f08c379a000000000000000000000000000000000000000000000000000000000815260040161050c906117c8565b60405180910390fd5b34831115610558576040517f08c379a000000000000000000000000000000000000000000000000000000000815260040161054f90611856565b60405180910390fd5b8373ffffffffffffffffffffffffffffffffffffffff166108fc8490811502906040515f60405180830381858888f1935050505015801561059b573d5f803e3d5ffd5b508373ffffffffffffffffffffffffffffffffffffffff16827f49149d48813d06b1eab23b1027f8282682cfc48f160dced04e67c5bf76a86b71856040516105e391906112f6565b60405180910390a35050505050565b6003602052805f5260405f205f91509050805f01549080600101805461061790611728565b80601f016020809104026020016040519081016040528092919081815260200182805461064390611728565b801561068e5780601f106106655761010080835404028352916020019161068e565b820191905f5260205f20905b81548152906001019060200180831161067157829003601f168201915b5050505050908060020154908060030154908060040154908060060154905086565b5f60035f8581526020019081526020015f20905081816005015f8573ffffffffffffffffffffffffffffffffffffffff1673ffffffffffffffffffffffffffffffffffffffff1681526020019081526020015f2090816107109190611a11565b508273ffffffffffffffffffffffffffffffffffffffff16847fedc1449c7c9af33113cbf0f096fe68ccc99d10d6fc9daff77a38c806c007ba64846040516107589190611ae0565b60405180910390a350505050565b60015481565b5f60035f8481526020019081526020015f209050806005015f8373ffffffffffffffffffffffffffffffffffffffff1673ffffffffffffffffffffffffffffffffffffffff1681526020019081526020015f205f6107ca9190610d82565b8173ffffffffffffffffffffffffffffffffffffffff16837fa172d438be3b4bd014c8fe9248e9de3967af496184dd892206846ed5213c5ff160405160405180910390a3505050565b5f80600190505b60015481116108b857826040516020016108349190611b3a565b6040516020818303038152906040528051906020012060035f8381526020019081526020015f2060010160405160200161086e9190611bd0565b60405160208183030381529060405280519060200120036108a55760035f8281526020019081526020015f205f01549150506108f4565b80806108b09061164c565b91505061081a565b506040517f08c379a00000000000000000000000000000000000000000000000000000000081526004016108eb906116dd565b60405180910390fd5b919050565b5f61090386610cbb565b90505f8103610947576040517f08c379a000000000000000000000000000000000000000000000000000000000815260040161093e90611c30565b60405180910390fd5b60015f8154809291906109599061164c565b91905055505f60035f60015481526020019081526020015f209050600154815f01819055508581600101908161098f9190611a11565b508481600201819055508381600301819055508281600401819055508181600601819055506001547fcc0f953e7baa58535ec14bdb8b28e646f8d89c1721d3c56f02085d5fbc37aa6787878787876040516109ee959493929190611c4e565b60405180910390a250505050505050565b6002602052805f5260405f205f91509050805f015490806001018054610a2490611728565b80601f0160208091040260200160405190810160405280929190818152602001828054610a5090611728565b8015610a9b5780601f10610a7257610100808354040283529160200191610a9b565b820191905f5260205f20905b815481529060010190602001808311610a7e57829003601f168201915b5050505050905082565b5f80815480929190610ab69061164c565b919050555060405180604001604052805f5481526020018281525060025f805481526020019081526020015f205f820151815f01556020820151816001019081610b009190611a11565b509050505f547f4c64207800a65bba9a5a59ea2aa1f83d224fdb9334544281fef64a157aabfd1d82604051610b359190611ae0565b60405180910390a250565b5f60605f805f80610b5087610d69565b9050805f015481600101826002015483600301548460040154838054610b7590611728565b80601f0160208091040260200160405190810160405280929190818152602001828054610ba190611728565b8015610bec5780601f10610bc357610100808354040283529160200191610bec565b820191905f5260205f20905b815481529060010190602001808311610bcf57829003601f168201915b50505050509350955095509550955095505091939590929450565b5f5481565b5f80600190505b6001548111610cb15782604051602001610c2d9190611b3a565b6040516020818303038152906040528051906020012060035f8381526020019081526020015f20600101604051602001610c679190611bd0565b6040516020818303038152906040528051906020012003610c9e5760035f8281526020019081526020015f205f0154915050610cb6565b8080610ca99061164c565b915050610c13565b505f90505b919050565b5f80600190505b5f548111610d5f5782604051602001610cdb9190611b3a565b6040516020818303038152906040528051906020012060025f8381526020019081526020015f20600101604051602001610d159190611bd0565b6040516020818303038152906040528051906020012003610d4c5760025f8281526020019081526020015f205f0154915050610d64565b8080610d579061164c565b915050610cc2565b505f90505b919050565b5f60035f8381526020019081526020015f209050919050565b508054610d8e90611728565b5f825580601f10610d9f5750610dbc565b601f0160209004905f5260205f2090810190610dbb9190610dbf565b5b50565b5b80821115610dd6575f815f905550600101610dc0565b5090565b5f604051905090565b5f80fd5b5f80fd5b5f819050919050565b610dfd81610deb565b8114610e07575f80fd5b50565b5f81359050610e1881610df4565b92915050565b5f8060408385031215610e3457610e33610de3565b5b5f610e4185828601610e0a565b9250506020610e5285828601610e0a565b9150509250929050565b5f81519050919050565b5f82825260208201905092915050565b5f819050602082019050919050565b610e8e81610deb565b82525050565b5f610e9f8383610e85565b60208301905092915050565b5f602082019050919050565b5f610ec182610e5c565b610ecb8185610e66565b9350610ed683610e76565b805f5b83811015610f06578151610eed8882610e94565b9750610ef883610eab565b925050600181019050610ed9565b5085935050505092915050565b5f6020820190508181035f830152610f2b8184610eb7565b905092915050565b5f80fd5b5f80fd5b5f601f19601f8301169050919050565b7f4e487b71000000000000000000000000000000000000000000000000000000005f52604160045260245ffd5b610f8182610f3b565b810181811067ffffffffffffffff82111715610fa057610f9f610f4b565b5b80604052505050565b5f610fb2610dda565b9050610fbe8282610f78565b919050565b5f67ffffffffffffffff821115610fdd57610fdc610f4b565b5b610fe682610f3b565b9050602081019050919050565b828183375f83830152505050565b5f61101361100e84610fc3565b610fa9565b90508281526020810184848401111561102f5761102e610f37565b5b61103a848285610ff3565b509392505050565b5f82601f83011261105657611055610f33565b5b8135611066848260208601611001565b91505092915050565b5f73ffffffffffffffffffffffffffffffffffffffff82169050919050565b5f6110988261106f565b9050919050565b6110a88161108e565b81146110b2575f80fd5b50565b5f813590506110c38161109f565b92915050565b5f805f606084860312156110e0576110df610de3565b5b5f84013567ffffffffffffffff8111156110fd576110fc610de7565b5b61110986828701611042565b935050602061111a868287016110b5565b925050604061112b86828701610e0a565b9150509250925092565b5f6020828403121561114a57611149610de3565b5b5f61115784828501610e0a565b91505092915050565b61116981610deb565b82525050565b5f81519050919050565b5f82825260208201905092915050565b5f5b838110156111a657808201518184015260208101905061118b565b5f8484015250505050565b5f6111bb8261116f565b6111c58185611179565b93506111d5818560208601611189565b6111de81610f3b565b840191505092915050565b5f60c0820190506111fc5f830189611160565b818103602083015261120e81886111b1565b905061121d6040830187611160565b61122a6060830186611160565b6112376080830185611160565b61124460a0830184611160565b979650505050505050565b5f6112598261106f565b9050919050565b6112698161124f565b8114611273575f80fd5b50565b5f8135905061128481611260565b92915050565b5f805f606084860312156112a1576112a0610de3565b5b5f6112ae86828701610e0a565b93505060206112bf86828701611276565b925050604084013567ffffffffffffffff8111156112e0576112df610de7565b5b6112ec86828701611042565b9150509250925092565b5f6020820190506113095f830184611160565b92915050565b5f806040838503121561132557611324610de3565b5b5f61133285828601610e0a565b925050602061134385828601611276565b9150509250929050565b5f6020828403121561136257611361610de3565b5b5f82013567ffffffffffffffff81111561137f5761137e610de7565b5b61138b84828501611042565b91505092915050565b5f805f805f60a086880312156113ad576113ac610de3565b5b5f86013567ffffffffffffffff8111156113ca576113c9610de7565b5b6113d688828901611042565b955050602086013567ffffffffffffffff8111156113f7576113f6610de7565b5b61140388828901611042565b945050604061141488828901610e0a565b935050606061142588828901610e0a565b925050608061143688828901610e0a565b9150509295509295909350565b5f6040820190506114565f830185611160565b818103602083015261146881846111b1565b90509392505050565b5f60a0820190506114845f830188611160565b818103602083015261149681876111b1565b90506114a56040830186611160565b6114b26060830185611160565b6114bf6080830184611160565b9695505050505050565b7f456e6420696e646578206d7573742062652067726561746572207468616e20735f8201527f7461727420696e64657800000000000000000000000000000000000000000000602082015250565b5f611523602a83611179565b915061152e826114c9565b604082019050919050565b5f6020820190508181035f83015261155081611517565b9050919050565b7f456e6420696e646578206f7574206f6620626f756e64730000000000000000005f82015250565b5f61158b601783611179565b915061159682611557565b602082019050919050565b5f6020820190508181035f8301526115b88161157f565b9050919050565b7f4e487b71000000000000000000000000000000000000000000000000000000005f52601160045260245ffd5b5f6115f682610deb565b915061160183610deb565b9250828203905081811115611619576116186115bf565b5b92915050565b7f4e487b71000000000000000000000000000000000000000000000000000000005f52603260045260245ffd5b5f61165682610deb565b91507fffffffffffffffffffffffffffffffffffffffffffffffffffffffffffffffff8203611688576116876115bf565b5b600182019050919050565b7f43616d706169676e206e616d65206e6f7420666f756e640000000000000000005f82015250565b5f6116c7601783611179565b91506116d282611693565b602082019050919050565b5f6020820190508181035f8301526116f4816116bb565b9050919050565b7f4e487b71000000000000000000000000000000000000000000000000000000005f52602260045260245ffd5b5f600282049050600182168061173f57607f821691505b602082108103611752576117516116fb565b5b50919050565b7f496e666c75656e636572206973206e6f742070617274206f66207468652063615f8201527f6d706169676e0000000000000000000000000000000000000000000000000000602082015250565b5f6117b2602683611179565b91506117bd82611758565b604082019050919050565b5f6020820190508181035f8301526117df816117a6565b9050919050565b7f53656e7420616d6f756e74206973206c657373207468616e20746865207370655f8201527f63696669656420616d6f756e7400000000000000000000000000000000000000602082015250565b5f611840602d83611179565b915061184b826117e6565b604082019050919050565b5f6020820190508181035f83015261186d81611834565b9050919050565b5f819050815f5260205f209050919050565b5f6020601f8301049050919050565b5f82821b905092915050565b5f600883026118d07fffffffffffffffffffffffffffffffffffffffffffffffffffffffffffffffff82611895565b6118da8683611895565b95508019841693508086168417925050509392505050565b5f819050919050565b5f61191561191061190b84610deb565b6118f2565b610deb565b9050919050565b5f819050919050565b61192e836118fb565b61194261193a8261191c565b8484546118a1565b825550505050565b5f90565b61195661194a565b611961818484611925565b505050565b5b81811015611984576119795f8261194e565b600181019050611967565b5050565b601f8211156119c95761199a81611874565b6119a384611886565b810160208510156119b2578190505b6119c66119be85611886565b830182611966565b50505b505050565b5f82821c905092915050565b5f6119e95f19846008026119ce565b1980831691505092915050565b5f611a0183836119da565b9150826002028217905092915050565b611a1a8261116f565b67ffffffffffffffff811115611a3357611a32610f4b565b5b611a3d8254611728565b611a48828285611988565b5f60209050601f831160018114611a79575f8415611a67578287015190505b611a7185826119f6565b865550611ad8565b601f198416611a8786611874565b5f5b82811015611aae57848901518255600182019150602085019450602081019050611a89565b86831015611acb5784890151611ac7601f8916826119da565b8355505b6001600288020188555050505b505050505050565b5f6020820190508181035f830152611af881846111b1565b905092915050565b5f81905092915050565b5f611b148261116f565b611b1e8185611b00565b9350611b2e818560208601611189565b80840191505092915050565b5f611b458284611b0a565b915081905092915050565b5f8154611b5c81611728565b611b668186611b00565b9450600182165f8114611b805760018114611b9557611bc7565b60ff1983168652811515820286019350611bc7565b611b9e85611874565b5f5b83811015611bbf57815481890152600182019150602081019050611ba0565b838801955050505b50505092915050565b5f611bdb8284611b50565b915081905092915050565b7f427573696e65737320646f6573206e6f742065786973740000000000000000005f82015250565b5f611c1a601783611179565b9150611c2582611be6565b602082019050919050565b5f6020820190508181035f830152611c4781611c0e565b9050919050565b5f60a0820190508181035f830152611c6681886111b1565b9050611c756020830187611160565b611c826040830186611160565b611c8f6060830185611160565b611c9c6080830184611160565b969550505050505056fea26469706673582212201eaa5fc460d7c245c50004ca8d9a1fb12b76857dcdd2bc5a153b7ff0636f738064736f6c63430008150033",
  "immutableReferences": {},
  "source": "// SPDX-License-Identifier: MIT\npragma solidity ^0.8.0;\n\ncontract Web3MarketingSuite {\n    struct Business {\n        uint256 id;\n        string name;\n    }\n\n    struct Campaign {\n        uint256 id;\n        string name;\n        uint256 startDate;\n        uint256 endDate;\n        uint256 budget;\n        mapping(address => string) influencers;\n        uint256 businessId; // Associate each campaign with a business\n    }\n\n    uint256 public businessCount = 0;\n    uint256 public campaignCount = 0;\n    mapping(uint256 => Business) public businesses;\n    mapping(uint256 => Campaign) public campaigns;\n\n    event BusinessCreated(uint256 indexed businessId, string name);\n    event CampaignCreated(uint256 indexed campaignId, string name, uint256 startDate, uint256 endDate, uint256 budget, uint256 businessId);\n    event InfluencerAdded(uint256 indexed campaignId, address indexed influencer, string name);\n    event InfluencerRemoved(uint256 indexed campaignId, address indexed influencer);\n    event TransactionMade(uint256 indexed campaignId, address indexed influencer, uint256 amount);\n\n    // Function to create a new business\n    function createBusiness(string memory _name) public {\n        businessCount++;\n        businesses[businessCount] = Business(businessCount, _name);\n        emit BusinessCreated(businessCount, _name);\n    }\n\n    // Function to create a new campaign by a business\n   function createCampaign(string memory _businessName, string memory _name, uint256 _startDate, uint256 _endDate, uint256 _budget) public {\n        uint256 businessId = findBusinessIdByName(_businessName);\n        require(businessId != 0, \"Business does not exist\");\n        campaignCount++;\n        Campaign storage newCampaign = campaigns[campaignCount];\n        newCampaign.id = campaignCount;\n        newCampaign.name = _name;\n        newCampaign.startDate = _startDate;\n        newCampaign.endDate = _endDate;\n        newCampaign.budget = _budget;\n        newCampaign.businessId = businessId;\n        emit CampaignCreated(campaignCount, _name, _startDate, _endDate, _budget, businessId);\n    }\n    function findBusinessIdByName(string memory _name) internal view returns (uint256) {\n        for (uint256 i = 1; i <= businessCount; i++) {\n            if (keccak256(abi.encodePacked(businesses[i].name)) == keccak256(abi.encodePacked(_name))) {\n                return businesses[i].id;\n            }\n        }\n        return 0; // Return 0 if no business is found with the given name\n    }\n\n    function addInfluencer(uint256 _campaignId, address _influencer, string memory _name) public {\n        Campaign storage campaign = campaigns[_campaignId];\n        campaign.influencers[_influencer] = _name;\n        emit InfluencerAdded(_campaignId, _influencer, _name);\n    }\n\n    function removeInfluencer(uint256 _campaignId, address _influencer) public {\n        Campaign storage campaign = campaigns[_campaignId];\n        delete campaign.influencers[_influencer];\n        emit InfluencerRemoved(_campaignId, _influencer);\n    }\n\n    // Internal function to get a campaign\n    function _getCampaign(uint256 _campaignId) internal view returns (Campaign storage) {\n        return campaigns[_campaignId];\n    }\n\n    // Public function to get campaign details\n    function getCampaignDetails(uint256 _campaignId) public view returns (uint256, string memory, uint256, uint256, uint256) {\n        Campaign storage campaign = _getCampaign(_campaignId);\n        return (campaign.id, campaign.name, campaign.startDate, campaign.endDate, campaign.budget);\n    }\n\n    // Function to get a list of campaign IDs\n    function getCampaigns(uint256 startIndex, uint256 endIndex) public view returns (uint256[] memory) {\n        require(endIndex > startIndex, \"End index must be greater than start index\");\n        require(endIndex <= campaignCount, \"End index out of bounds\");\n\n        uint256[] memory campaignIds = new uint256[](endIndex - startIndex);\n        for (uint256 i = startIndex; i < endIndex; i++) {\n            campaignIds[i - startIndex] = i;\n        }\n        return campaignIds;\n    }\n\n    // Function to make a transaction between a user and an influencer\n    function makeTransaction(string memory _campaignName, address payable _influencer, uint256 _amount) public payable {\n        uint256 campaignId = findCampaignIdByName(_campaignName);\n        require(campaignId != 0, \"Campaign name not found\");\n        Campaign storage campaign = campaigns[campaignId];\n        require(bytes(campaign.influencers[_influencer]).length > 0, \"Influencer is not part of the campaign\");\n        require(_amount <= msg.value, \"Sent amount is less than the specified amount\");\n        _influencer.transfer(_amount);\n        emit TransactionMade(campaignId, _influencer, _amount);\n    }\n    function findCampaignIdByName(string memory _name) internal view returns (uint256) {\n        for (uint256 i = 1; i <= campaignCount; i++) {\n            if (keccak256(abi.encodePacked(campaigns[i].name)) == keccak256(abi.encodePacked(_name))) {\n                return campaigns[i].id;\n            }\n        }\n        return 0; // Return 0 if no campaign is found with the given name\n    }\n    function getCampaignIdByName(string memory _name) public view returns (uint256) {\n        for (uint256 i = 1; i <= campaignCount; i++) {\n            if (keccak256(abi.encodePacked(campaigns[i].name)) == keccak256(abi.encodePacked(_name))) {\n                return campaigns[i].id;\n            }\n        }\n        revert(\"Campaign name not found\");\n    }\n}\n",
  "sourcePath": "C:\\Users\\lisban\\Desktop\\Major Project\\Final\\create-react-app\\Web3MarketingSuite\\contracts\\Web3MarketingSuite.sol",
  "compiler": {
    "name": "solc",
    "version": "0.8.21+commit.d9974bed.Emscripten.clang"
  },
  "schemaVersion": "3.4.16",
  "updatedAt": "2024-04-02T07:12:35.938Z",
  "devdoc": {
    "kind": "dev",
    "methods": {},
    "version": 1
  },
  "userdoc": {
    "kind": "user",
    "methods": {},
    "version": 1
  }
}