{
  "contractName": "Web3MarketingSuite",
  "abi": [
    {
      "anonymous": false,
      "inputs": [
        {
          "indexed": true,
          "internalType": "uint256",
          "name": "businessId",
          "type": "uint256"
        },
        {
          "indexed": false,
          "internalType": "string",
          "name": "name",
          "type": "string"
        }
      ],
      "name": "BusinessCreated",
      "type": "event"
    },
    {
      "anonymous": false,
      "inputs": [
        {
          "indexed": true,
          "internalType": "uint256",
          "name": "campaignId",
          "type": "uint256"
        },
        {
          "indexed": false,
          "internalType": "string",
          "name": "name",
          "type": "string"
        },
        {
          "indexed": false,
          "internalType": "uint256",
          "name": "startDate",
          "type": "uint256"
        },
        {
          "indexed": false,
          "internalType": "uint256",
          "name": "endDate",
          "type": "uint256"
        },
        {
          "indexed": false,
          "internalType": "uint256",
          "name": "budget",
          "type": "uint256"
        },
        {
          "indexed": false,
          "internalType": "uint256",
          "name": "businessId",
          "type": "uint256"
        }
      ],
      "name": "CampaignCreated",
      "type": "event"
    },
    {
      "anonymous": false,
      "inputs": [
        {
          "indexed": true,
          "internalType": "uint256",
          "name": "campaignId",
          "type": "uint256"
        },
        {
          "indexed": true,
          "internalType": "address",
          "name": "influencer",
          "type": "address"
        },
        {
          "indexed": false,
          "internalType": "string",
          "name": "name",
          "type": "string"
        }
      ],
      "name": "InfluencerAdded",
      "type": "event"
    },
    {
      "anonymous": false,
      "inputs": [
        {
          "indexed": true,
          "internalType": "uint256",
          "name": "campaignId",
          "type": "uint256"
        },
        {
          "indexed": true,
          "internalType": "address",
          "name": "influencer",
          "type": "address"
        }
      ],
      "name": "InfluencerRemoved",
      "type": "event"
    },
    {
      "anonymous": false,
      "inputs": [
        {
          "indexed": true,
          "internalType": "uint256",
          "name": "campaignId",
          "type": "uint256"
        },
        {
          "indexed": true,
          "internalType": "address",
          "name": "influencer",
          "type": "address"
        },
        {
          "indexed": false,
          "internalType": "uint256",
          "name": "amount",
          "type": "uint256"
        }
      ],
      "name": "TransactionMade",
      "type": "event"
    },
    {
      "inputs": [],
      "name": "businessCount",
      "outputs": [
        {
          "internalType": "uint256",
          "name": "",
          "type": "uint256"
        }
      ],
      "stateMutability": "view",
      "type": "function",
      "constant": true
    },
    {
      "inputs": [
        {
          "internalType": "uint256",
          "name": "",
          "type": "uint256"
        }
      ],
      "name": "businesses",
      "outputs": [
        {
          "internalType": "uint256",
          "name": "id",
          "type": "uint256"
        },
        {
          "internalType": "string",
          "name": "name",
          "type": "string"
        }
      ],
      "stateMutability": "view",
      "type": "function",
      "constant": true
    },
    {
      "inputs": [],
      "name": "campaignCount",
      "outputs": [
        {
          "internalType": "uint256",
          "name": "",
          "type": "uint256"
        }
      ],
      "stateMutability": "view",
      "type": "function",
      "constant": true
    },
    {
      "inputs": [
        {
          "internalType": "uint256",
          "name": "",
          "type": "uint256"
        }
      ],
      "name": "campaigns",
      "outputs": [
        {
          "internalType": "uint256",
          "name": "id",
          "type": "uint256"
        },
        {
          "internalType": "string",
          "name": "name",
          "type": "string"
        },
        {
          "internalType": "uint256",
          "name": "startDate",
          "type": "uint256"
        },
        {
          "internalType": "uint256",
          "name": "endDate",
          "type": "uint256"
        },
        {
          "internalType": "uint256",
          "name": "budget",
          "type": "uint256"
        },
        {
          "internalType": "uint256",
          "name": "businessId",
          "type": "uint256"
        }
      ],
      "stateMutability": "view",
      "type": "function",
      "constant": true
    },
    {
      "inputs": [
        {
          "internalType": "string",
          "name": "_name",
          "type": "string"
        }
      ],
      "name": "createBusiness",
      "outputs": [],
      "stateMutability": "nonpayable",
      "type": "function"
    },
    {
      "inputs": [
        {
          "internalType": "string",
          "name": "_businessName",
          "type": "string"
        },
        {
          "internalType": "string",
          "name": "_name",
          "type": "string"
        },
        {
          "internalType": "uint256",
          "name": "_startDate",
          "type": "uint256"
        },
        {
          "internalType": "uint256",
          "name": "_endDate",
          "type": "uint256"
        },
        {
          "internalType": "uint256",
          "name": "_budget",
          "type": "uint256"
        }
      ],
      "name": "createCampaign",
      "outputs": [],
      "stateMutability": "nonpayable",
      "type": "function"
    },
    {
      "inputs": [
        {
          "internalType": "uint256",
          "name": "_campaignId",
          "type": "uint256"
        },
        {
          "internalType": "address",
          "name": "_influencer",
          "type": "address"
        },
        {
          "internalType": "string",
          "name": "_name",
          "type": "string"
        }
      ],
      "name": "addInfluencer",
      "outputs": [],
      "stateMutability": "nonpayable",
      "type": "function"
    },
    {
      "inputs": [
        {
          "internalType": "uint256",
          "name": "_campaignId",
          "type": "uint256"
        },
        {
          "internalType": "address",
          "name": "_influencer",
          "type": "address"
        }
      ],
      "name": "removeInfluencer",
      "outputs": [],
      "stateMutability": "nonpayable",
      "type": "function"
    },
    {
      "inputs": [
        {
          "internalType": "uint256",
          "name": "_campaignId",
          "type": "uint256"
        }
      ],
      "name": "getCampaignDetails",
      "outputs": [
        {
          "internalType": "uint256",
          "name": "",
          "type": "uint256"
        },
        {
          "internalType": "string",
          "name": "",
          "type": "string"
        },
        {
          "internalType": "uint256",
          "name": "",
          "type": "uint256"
        },
        {
          "internalType": "uint256",
          "name": "",
          "type": "uint256"
        },
        {
          "internalType": "uint256",
          "name": "",
          "type": "uint256"
        }
      ],
      "stateMutability": "view",
      "type": "function",
      "constant": true
    },
    {
      "inputs": [
        {
          "internalType": "uint256",
          "name": "startIndex",
          "type": "uint256"
        },
        {
          "internalType": "uint256",
          "name": "endIndex",
          "type": "uint256"
        }
      ],
      "name": "getCampaigns",
      "outputs": [
        {
          "internalType": "uint256[]",
          "name": "",
          "type": "uint256[]"
        }
      ],
      "stateMutability": "view",
      "type": "function",
      "constant": true
    },
    {
      "inputs": [
        {
          "internalType": "string",
          "name": "_campaignName",
          "type": "string"
        },
        {
          "internalType": "address payable",
          "name": "_influencer",
          "type": "address"
        },
        {
          "internalType": "uint256",
          "name": "_amount",
          "type": "uint256"
        }
      ],
      "name": "makeTransaction",
      "outputs": [],
      "stateMutability": "payable",
      "type": "function",
      "payable": true
    },
    {
      "inputs": [
        {
          "internalType": "string",
          "name": "_name",
          "type": "string"
        }
      ],
      "name": "getCampaignIdByName",
      "outputs": [
        {
          "internalType": "uint256",
          "name": "",
          "type": "uint256"
        }
      ],
      "stateMutability": "view",
      "type": "function",
      "constant": true
    }
  ],
  "bytecode": "0x608060405260008055600060015534801561001957600080fd5b50611b5d806100296000396000f3fe6080604052600436106100a75760003560e01c8063926912441161006457806392691244146101c4578063b5c8921914610201578063b984c6ec1461022a578063d170025514610268578063d993de6214610291578063da2aff2a146102d2576100a7565b806309051566146100ac5780630d1291e3146100e9578063141961bc146101055780636aff4593146101475780637274e30d146101705780637eaf27351461019b575b600080fd5b3480156100b857600080fd5b506100d360048036038101906100ce91906111eb565b6102fd565b6040516100e091906115c4565b60405180910390f35b61010360048036038101906100fe9190611011565b610481565b005b34801561011157600080fd5b5061012c6004803603810190610127919061111f565b610659565b60405161013e969594939291906117c7565b60405180910390f35b34801561015357600080fd5b5061016e60048036038101906101699190611184565b61071d565b005b34801561017c57600080fd5b506101856107df565b6040516101929190611722565b60405180910390f35b3480156101a757600080fd5b506101c260048036038101906101bd9190611148565b6107e5565b005b3480156101d057600080fd5b506101eb60048036038101906101e69190610fd0565b610892565b6040516101f89190611722565b60405180910390f35b34801561020d57600080fd5b5061022860048036038101906102239190611078565b61097f565b005b34801561023657600080fd5b50610251600480360381019061024c919061111f565b610a94565b60405161025f92919061173d565b60405180910390f35b34801561027457600080fd5b5061028f600480360381019061028a9190610fd0565b610b40565b005b34801561029d57600080fd5b506102b860048036038101906102b3919061111f565b610be9565b6040516102c995949392919061176d565b60405180910390f35b3480156102de57600080fd5b506102e7610cb6565b6040516102f49190611722565b60405180910390f35b6060828211610341576040517f08c379a000000000000000000000000000000000000000000000000000000000815260040161033890611682565b60405180910390fd5b600154821115610386576040517f08c379a000000000000000000000000000000000000000000000000000000000815260040161037d906116a2565b60405180910390fd5b600083836103949190611905565b67ffffffffffffffff8111156103d3577f4e487b7100000000000000000000000000000000000000000000000000000000600052604160045260246000fd5b6040519080825280602002602001820160405280156104015781602001602082028036833780820191505090505b50905060008490505b8381101561047657808286836104209190611905565b81518110610457577f4e487b7100000000000000000000000000000000000000000000000000000000600052603260045260246000fd5b602002602001018181525050808061046e906119fb565b91505061040a565b508091505092915050565b600061048c84610cbc565b905060008114156104d2576040517f08c379a00000000000000000000000000000000000000000000000000000000081526004016104c990611702565b60405180910390fd5b600060036000838152602001908152602001600020905060008160050160008673ffffffffffffffffffffffffffffffffffffffff1673ffffffffffffffffffffffffffffffffffffffff1681526020019081526020016000208054610537906119c9565b905011610579576040517f08c379a0000000000000000000000000000000000000000000000000000000008152600401610570906116e2565b60405180910390fd5b348311156105bc576040517f08c379a00000000000000000000000000000000000000000000000000000000081526004016105b3906116c2565b60405180910390fd5b8373ffffffffffffffffffffffffffffffffffffffff166108fc849081150290604051600060405180830381858888f19350505050158015610602573d6000803e3d6000fd5b508373ffffffffffffffffffffffffffffffffffffffff16827f49149d48813d06b1eab23b1027f8282682cfc48f160dced04e67c5bf76a86b718560405161064a9190611722565b60405180910390a35050505050565b6003602052806000526040600020600091509050806000015490806001018054610682906119c9565b80601f01602080910402602001604051908101604052809291908181526020018280546106ae906119c9565b80156106fb5780601f106106d0576101008083540402835291602001916106fb565b820191906000526020600020905b8154815290600101906020018083116106de57829003601f168201915b5050505050908060020154908060030154908060040154908060060154905086565b6000600360008581526020019081526020016000209050818160050160008573ffffffffffffffffffffffffffffffffffffffff1673ffffffffffffffffffffffffffffffffffffffff1681526020019081526020016000209080519060200190610789929190610e46565b508273ffffffffffffffffffffffffffffffffffffffff16847fedc1449c7c9af33113cbf0f096fe68ccc99d10d6fc9daff77a38c806c007ba64846040516107d191906115e6565b60405180910390a350505050565b60015481565b60006003600084815260200190815260200160002090508060050160008373ffffffffffffffffffffffffffffffffffffffff1673ffffffffffffffffffffffffffffffffffffffff16815260200190815260200160002060006108499190610ecc565b8173ffffffffffffffffffffffffffffffffffffffff16837fa172d438be3b4bd014c8fe9248e9de3967af496184dd892206846ed5213c5ff160405160405180910390a3505050565b600080600190505b600154811161093e57826040516020016108b49190611596565b60405160208183030381529060405280519060200120600360008381526020019081526020016000206001016040516020016108f091906115ad565b60405160208183030381529060405280519060200120141561092b57600360008281526020019081526020016000206000015491505061097a565b8080610936906119fb565b91505061089a565b506040517f08c379a000000000000000000000000000000000000000000000000000000000815260040161097190611702565b60405180910390fd5b919050565b600061098a86610d73565b905060008114156109d0576040517f08c379a00000000000000000000000000000000000000000000000000000000081526004016109c790611662565b60405180910390fd5b600160008154809291906109e3906119fb565b919050555060006003600060015481526020019081526020016000209050600154816000018190555085816001019080519060200190610a24929190610e46565b508481600201819055508381600301819055508281600401819055508181600601819055506001547fcc0f953e7baa58535ec14bdb8b28e646f8d89c1721d3c56f02085d5fbc37aa678787878787604051610a83959493929190611608565b60405180910390a250505050505050565b6002602052806000526040600020600091509050806000015490806001018054610abd906119c9565b80601f0160208091040260200160405190810160405280929190818152602001828054610ae9906119c9565b8015610b365780601f10610b0b57610100808354040283529160200191610b36565b820191906000526020600020905b815481529060010190602001808311610b1957829003601f168201915b5050505050905082565b600080815480929190610b52906119fb565b919050555060405180604001604052806000548152602001828152506002600080548152602001908152602001600020600082015181600001556020820151816001019080519060200190610ba8929190610e46565b509050506000547f4c64207800a65bba9a5a59ea2aa1f83d224fdb9334544281fef64a157aabfd1d82604051610bde91906115e6565b60405180910390a250565b60006060600080600080610bfc87610e2a565b9050806000015481600101826002015483600301548460040154838054610c22906119c9565b80601f0160208091040260200160405190810160405280929190818152602001828054610c4e906119c9565b8015610c9b5780601f10610c7057610100808354040283529160200191610c9b565b820191906000526020600020905b815481529060010190602001808311610c7e57829003601f168201915b50505050509350955095509550955095505091939590929450565b60005481565b600080600190505b6001548111610d685782604051602001610cde9190611596565b6040516020818303038152906040528051906020012060036000838152602001908152602001600020600101604051602001610d1a91906115ad565b604051602081830303815290604052805190602001201415610d55576003600082815260200190815260200160002060000154915050610d6e565b8080610d60906119fb565b915050610cc4565b50600090505b919050565b600080600190505b6000548111610e1f5782604051602001610d959190611596565b6040516020818303038152906040528051906020012060026000838152602001908152602001600020600101604051602001610dd191906115ad565b604051602081830303815290604052805190602001201415610e0c576002600082815260200190815260200160002060000154915050610e25565b8080610e17906119fb565b915050610d7b565b50600090505b919050565b6000600360008381526020019081526020016000209050919050565b828054610e52906119c9565b90600052602060002090601f016020900481019282610e745760008555610ebb565b82601f10610e8d57805160ff1916838001178555610ebb565b82800160010185558215610ebb579182015b82811115610eba578251825591602001919060010190610e9f565b5b509050610ec89190610f0c565b5090565b508054610ed8906119c9565b6000825580601f10610eea5750610f09565b601f016020900490600052602060002090810190610f089190610f0c565b5b50565b5b80821115610f25576000816000905550600101610f0d565b5090565b6000610f3c610f3784611860565b61182f565b905082815260208101848484011115610f5457600080fd5b610f5f848285611987565b509392505050565b600081359050610f7681611ae2565b92915050565b600081359050610f8b81611af9565b92915050565b600082601f830112610fa257600080fd5b8135610fb2848260208601610f29565b91505092915050565b600081359050610fca81611b10565b92915050565b600060208284031215610fe257600080fd5b600082013567ffffffffffffffff811115610ffc57600080fd5b61100884828501610f91565b91505092915050565b60008060006060848603121561102657600080fd5b600084013567ffffffffffffffff81111561104057600080fd5b61104c86828701610f91565b935050602061105d86828701610f7c565b925050604061106e86828701610fbb565b9150509250925092565b600080600080600060a0868803121561109057600080fd5b600086013567ffffffffffffffff8111156110aa57600080fd5b6110b688828901610f91565b955050602086013567ffffffffffffffff8111156110d357600080fd5b6110df88828901610f91565b94505060406110f088828901610fbb565b935050606061110188828901610fbb565b925050608061111288828901610fbb565b9150509295509295909350565b60006020828403121561113157600080fd5b600061113f84828501610fbb565b91505092915050565b6000806040838503121561115b57600080fd5b600061116985828601610fbb565b925050602061117a85828601610f67565b9150509250929050565b60008060006060848603121561119957600080fd5b60006111a786828701610fbb565b93505060206111b886828701610f67565b925050604084013567ffffffffffffffff8111156111d557600080fd5b6111e186828701610f91565b9150509250925092565b600080604083850312156111fe57600080fd5b600061120c85828601610fbb565b925050602061121d85828601610fbb565b9150509250929050565b60006112338383611578565b60208301905092915050565b600061124a826118b5565b61125481856118d8565b935061125f83611890565b8060005b838110156112905781516112778882611227565b9750611282836118cb565b925050600181019050611263565b5085935050505092915050565b60006112a8826118c0565b6112b281856118e9565b93506112c2818560208601611996565b6112cb81611ad1565b840191505092915050565b60006112e1826118c0565b6112eb81856118fa565b93506112fb818560208601611996565b80840191505092915050565b60008154611314816119c9565b61131e81866118fa565b94506001821660008114611339576001811461134a5761137d565b60ff1983168652818601935061137d565b611353856118a0565b60005b8381101561137557815481890152600182019150602081019050611356565b838801955050505b50505092915050565b60006113936017836118e9565b91507f427573696e65737320646f6573206e6f742065786973740000000000000000006000830152602082019050919050565b60006113d3602a836118e9565b91507f456e6420696e646578206d7573742062652067726561746572207468616e207360008301527f7461727420696e646578000000000000000000000000000000000000000000006020830152604082019050919050565b60006114396017836118e9565b91507f456e6420696e646578206f7574206f6620626f756e64730000000000000000006000830152602082019050919050565b6000611479602d836118e9565b91507f53656e7420616d6f756e74206973206c657373207468616e207468652073706560008301527f63696669656420616d6f756e74000000000000000000000000000000000000006020830152604082019050919050565b60006114df6026836118e9565b91507f496e666c75656e636572206973206e6f742070617274206f662074686520636160008301527f6d706169676e00000000000000000000000000000000000000000000000000006020830152604082019050919050565b60006115456017836118e9565b91507f43616d706169676e206e616d65206e6f7420666f756e640000000000000000006000830152602082019050919050565b6115818161197d565b82525050565b6115908161197d565b82525050565b60006115a282846112d6565b915081905092915050565b60006115b98284611307565b915081905092915050565b600060208201905081810360008301526115de818461123f565b905092915050565b60006020820190508181036000830152611600818461129d565b905092915050565b600060a0820190508181036000830152611622818861129d565b90506116316020830187611587565b61163e6040830186611587565b61164b6060830185611587565b6116586080830184611587565b9695505050505050565b6000602082019050818103600083015261167b81611386565b9050919050565b6000602082019050818103600083015261169b816113c6565b9050919050565b600060208201905081810360008301526116bb8161142c565b9050919050565b600060208201905081810360008301526116db8161146c565b9050919050565b600060208201905081810360008301526116fb816114d2565b9050919050565b6000602082019050818103600083015261171b81611538565b9050919050565b60006020820190506117376000830184611587565b92915050565b60006040820190506117526000830185611587565b8181036020830152611764818461129d565b90509392505050565b600060a0820190506117826000830188611587565b8181036020830152611794818761129d565b90506117a36040830186611587565b6117b06060830185611587565b6117bd6080830184611587565b9695505050505050565b600060c0820190506117dc6000830189611587565b81810360208301526117ee818861129d565b90506117fd6040830187611587565b61180a6060830186611587565b6118176080830185611587565b61182460a0830184611587565b979650505050505050565b6000604051905081810181811067ffffffffffffffff8211171561185657611855611aa2565b5b8060405250919050565b600067ffffffffffffffff82111561187b5761187a611aa2565b5b601f19601f8301169050602081019050919050565b6000819050602082019050919050565b60008190508160005260206000209050919050565b600081519050919050565b600081519050919050565b6000602082019050919050565b600082825260208201905092915050565b600082825260208201905092915050565b600081905092915050565b60006119108261197d565b915061191b8361197d565b92508282101561192e5761192d611a44565b5b828203905092915050565b60006119448261195d565b9050919050565b60006119568261195d565b9050919050565b600073ffffffffffffffffffffffffffffffffffffffff82169050919050565b6000819050919050565b82818337600083830152505050565b60005b838110156119b4578082015181840152602081019050611999565b838111156119c3576000848401525b50505050565b600060028204905060018216806119e157607f821691505b602082108114156119f5576119f4611a73565b5b50919050565b6000611a068261197d565b91507fffffffffffffffffffffffffffffffffffffffffffffffffffffffffffffffff821415611a3957611a38611a44565b5b600182019050919050565b7f4e487b7100000000000000000000000000000000000000000000000000000000600052601160045260246000fd5b7f4e487b7100000000000000000000000000000000000000000000000000000000600052602260045260246000fd5b7f4e487b7100000000000000000000000000000000000000000000000000000000600052604160045260246000fd5b6000601f19601f8301169050919050565b611aeb81611939565b8114611af657600080fd5b50565b611b028161194b565b8114611b0d57600080fd5b50565b611b198161197d565b8114611b2457600080fd5b5056fea26469706673582212207c145e0ab0772cc36e238e498a936f8f853d4e5db606661981079db225033cae64736f6c63430008000033",
  "immutableReferences": {},
  "source": "// SPDX-License-Identifier: MIT\npragma solidity ^0.8.0;\n\ncontract Web3MarketingSuite {\n    struct Business {\n        uint256 id;\n        string name;\n    }\n\n    struct Campaign {\n        uint256 id;\n        string name;\n        uint256 startDate;\n        uint256 endDate;\n        uint256 budget;\n        mapping(address => string) influencers;\n        uint256 businessId; // Associate each campaign with a business\n    }\n\n    uint256 public businessCount = 0;\n    uint256 public campaignCount = 0;\n    mapping(uint256 => Business) public businesses;\n    mapping(uint256 => Campaign) public campaigns;\n\n    event BusinessCreated(uint256 indexed businessId, string name);\n    event CampaignCreated(uint256 indexed campaignId, string name, uint256 startDate, uint256 endDate, uint256 budget, uint256 businessId);\n    event InfluencerAdded(uint256 indexed campaignId, address indexed influencer, string name);\n    event InfluencerRemoved(uint256 indexed campaignId, address indexed influencer);\n    event TransactionMade(uint256 indexed campaignId, address indexed influencer, uint256 amount);\n\n    // Function to create a new business\n    function createBusiness(string memory _name) public {\n        businessCount++;\n        businesses[businessCount] = Business(businessCount, _name);\n        emit BusinessCreated(businessCount, _name);\n    }\n\n    // Function to create a new campaign by a business\n   function createCampaign(string memory _businessName, string memory _name, uint256 _startDate, uint256 _endDate, uint256 _budget) public {\n        uint256 businessId = findBusinessIdByName(_businessName);\n        require(businessId != 0, \"Business does not exist\");\n        campaignCount++;\n        Campaign storage newCampaign = campaigns[campaignCount];\n        newCampaign.id = campaignCount;\n        newCampaign.name = _name;\n        newCampaign.startDate = _startDate;\n        newCampaign.endDate = _endDate;\n        newCampaign.budget = _budget;\n        newCampaign.businessId = businessId;\n        emit CampaignCreated(campaignCount, _name, _startDate, _endDate, _budget, businessId);\n    }\n    function findBusinessIdByName(string memory _name) internal view returns (uint256) {\n        for (uint256 i = 1; i <= businessCount; i++) {\n            if (keccak256(abi.encodePacked(businesses[i].name)) == keccak256(abi.encodePacked(_name))) {\n                return businesses[i].id;\n            }\n        }\n        return 0; // Return 0 if no business is found with the given name\n    }\n\n    function addInfluencer(uint256 _campaignId, address _influencer, string memory _name) public {\n        Campaign storage campaign = campaigns[_campaignId];\n        campaign.influencers[_influencer] = _name;\n        emit InfluencerAdded(_campaignId, _influencer, _name);\n    }\n\n    function removeInfluencer(uint256 _campaignId, address _influencer) public {\n        Campaign storage campaign = campaigns[_campaignId];\n        delete campaign.influencers[_influencer];\n        emit InfluencerRemoved(_campaignId, _influencer);\n    }\n\n    // Internal function to get a campaign\n    function _getCampaign(uint256 _campaignId) internal view returns (Campaign storage) {\n        return campaigns[_campaignId];\n    }\n\n    // Public function to get campaign details\n    function getCampaignDetails(uint256 _campaignId) public view returns (uint256, string memory, uint256, uint256, uint256) {\n        Campaign storage campaign = _getCampaign(_campaignId);\n        return (campaign.id, campaign.name, campaign.startDate, campaign.endDate, campaign.budget);\n    }\n\n    // Function to get a list of campaign IDs\n    function getCampaigns(uint256 startIndex, uint256 endIndex) public view returns (uint256[] memory) {\n        require(endIndex > startIndex, \"End index must be greater than start index\");\n        require(endIndex <= campaignCount, \"End index out of bounds\");\n\n        uint256[] memory campaignIds = new uint256[](endIndex - startIndex);\n        for (uint256 i = startIndex; i < endIndex; i++) {\n            campaignIds[i - startIndex] = i;\n        }\n        return campaignIds;\n    }\n\n    // Function to make a transaction between a user and an influencer\n    function makeTransaction(string memory _campaignName, address payable _influencer, uint256 _amount) public payable {\n        uint256 campaignId = findCampaignIdByName(_campaignName);\n        require(campaignId != 0, \"Campaign name not found\");\n        Campaign storage campaign = campaigns[campaignId];\n        require(bytes(campaign.influencers[_influencer]).length > 0, \"Influencer is not part of the campaign\");\n        require(_amount <= msg.value, \"Sent amount is less than the specified amount\");\n        _influencer.transfer(_amount);\n        emit TransactionMade(campaignId, _influencer, _amount);\n    }\n    function findCampaignIdByName(string memory _name) internal view returns (uint256) {\n        for (uint256 i = 1; i <= campaignCount; i++) {\n            if (keccak256(abi.encodePacked(campaigns[i].name)) == keccak256(abi.encodePacked(_name))) {\n                return campaigns[i].id;\n            }\n        }\n        return 0; // Return 0 if no campaign is found with the given name\n    }\n    function getCampaignIdByName(string memory _name) public view returns (uint256) {\n        for (uint256 i = 1; i <= campaignCount; i++) {\n            if (keccak256(abi.encodePacked(campaigns[i].name)) == keccak256(abi.encodePacked(_name))) {\n                return campaigns[i].id;\n            }\n        }\n        revert(\"Campaign name not found\");\n    }\n}\n",
  "sourcePath": "C:\\Users\\lisban\\Desktop\\Major Project\\Final\\create-react-app\\Web3MarketingSuite\\contracts\\Web3MarketingSuite.sol",
  "compiler": {
    "name": "solc",
    "version": "0.8.0+commit.c7dfd78e.Emscripten.clang"
  },
  "schemaVersion": "3.4.16",
  "updatedAt": "2024-04-02T07:16:37.520Z",
  "networkType": "ethereum",
  "devdoc": {
    "kind": "dev",
    "methods": {},
    "version": 1
  },
  "userdoc": {
    "kind": "user",
    "methods": {},
    "version": 1
  }
}